{
  "_format": "hh-sol-artifact-1",
  "contractName": "TokenDistributor",
  "sourceName": "contracts/TokenDistributor.sol",
  "abi": [
    {
      "inputs": [
        {
          "internalType": "address",
          "name": "initialOwner",
          "type": "address"
        }
      ],
      "stateMutability": "nonpayable",
      "type": "constructor"
    },
    {
      "inputs": [
        {
          "internalType": "address",
          "name": "owner",
          "type": "address"
        }
      ],
      "name": "OwnableInvalidOwner",
      "type": "error"
    },
    {
      "inputs": [
        {
          "internalType": "address",
          "name": "account",
          "type": "address"
        }
      ],
      "name": "OwnableUnauthorizedAccount",
      "type": "error"
    },
    {
      "anonymous": false,
      "inputs": [
        {
          "indexed": true,
          "internalType": "address",
          "name": "previousOwner",
          "type": "address"
        },
        {
          "indexed": true,
          "internalType": "address",
          "name": "newOwner",
          "type": "address"
        }
      ],
      "name": "OwnershipTransferred",
      "type": "event"
    },
    {
      "anonymous": false,
      "inputs": [
        {
          "indexed": true,
          "internalType": "address",
          "name": "user",
          "type": "address"
        },
        {
          "indexed": true,
          "internalType": "address",
          "name": "tokenAddress",
          "type": "address"
        },
        {
          "indexed": false,
          "internalType": "uint256",
          "name": "amount",
          "type": "uint256"
        }
      ],
      "name": "TokensClaimed",
      "type": "event"
    },
    {
      "anonymous": false,
      "inputs": [
        {
          "indexed": true,
          "internalType": "address",
          "name": "tokenAddress",
          "type": "address"
        },
        {
          "indexed": false,
          "internalType": "uint256",
          "name": "amount",
          "type": "uint256"
        },
        {
          "indexed": false,
          "internalType": "address[]",
          "name": "recipients",
          "type": "address[]"
        }
      ],
      "name": "TokensDeposited",
      "type": "event"
    },
    {
      "inputs": [
        {
          "internalType": "address",
          "name": "_tokenAddress",
          "type": "address"
        },
        {
          "internalType": "uint256[]",
          "name": "_amounts",
          "type": "uint256[]"
        },
        {
          "internalType": "address[]",
          "name": "_recipients",
          "type": "address[]"
        }
      ],
      "name": "depositTokens",
      "outputs": [],
      "stateMutability": "nonpayable",
      "type": "function"
    },
    {
      "inputs": [
        {
          "internalType": "address",
          "name": "",
          "type": "address"
        },
        {
          "internalType": "uint256",
          "name": "",
          "type": "uint256"
        }
      ],
      "name": "distributions",
      "outputs": [
        {
          "internalType": "address",
          "name": "tokenAddress",
          "type": "address"
        },
        {
          "internalType": "uint256",
          "name": "amount",
          "type": "uint256"
        },
        {
          "internalType": "bool",
          "name": "claimed",
          "type": "bool"
        }
      ],
      "stateMutability": "view",
      "type": "function"
    },
    {
      "inputs": [],
      "name": "owner",
      "outputs": [
        {
          "internalType": "address",
          "name": "",
          "type": "address"
        }
      ],
      "stateMutability": "view",
      "type": "function"
    },
    {
      "inputs": [],
      "name": "renounceOwnership",
      "outputs": [],
      "stateMutability": "nonpayable",
      "type": "function"
    },
    {
      "inputs": [
        {
          "internalType": "address",
          "name": "newOwner",
          "type": "address"
        }
      ],
      "name": "transferOwnership",
      "outputs": [],
      "stateMutability": "nonpayable",
      "type": "function"
    }
  ],
  "bytecode": "0x60806040523480156200001157600080fd5b5060405162000f2038038062000f208339818101604052810190620000379190620001f4565b80600073ffffffffffffffffffffffffffffffffffffffff168173ffffffffffffffffffffffffffffffffffffffff1603620000ad5760006040517f1e4fbdf7000000000000000000000000000000000000000000000000000000008152600401620000a4919062000237565b60405180910390fd5b620000be81620000c660201b60201c565b505062000254565b60008060009054906101000a900473ffffffffffffffffffffffffffffffffffffffff169050816000806101000a81548173ffffffffffffffffffffffffffffffffffffffff021916908373ffffffffffffffffffffffffffffffffffffffff1602179055508173ffffffffffffffffffffffffffffffffffffffff168173ffffffffffffffffffffffffffffffffffffffff167f8be0079c531659141344cd1fd0a4f28419497f9722a3daafe3b4186f6b6457e060405160405180910390a35050565b600080fd5b600073ffffffffffffffffffffffffffffffffffffffff82169050919050565b6000620001bc826200018f565b9050919050565b620001ce81620001af565b8114620001da57600080fd5b50565b600081519050620001ee81620001c3565b92915050565b6000602082840312156200020d576200020c6200018a565b5b60006200021d84828501620001dd565b91505092915050565b6200023181620001af565b82525050565b60006020820190506200024e600083018462000226565b92915050565b610cbc80620002646000396000f3fe608060405234801561001057600080fd5b50600436106100575760003560e01c80632d9b4b251461005c578063715018a61461008e5780638da5cb5b14610098578063d6747143146100b6578063f2fde38b146100d2575b600080fd5b61007660048036038101906100719190610718565b6100ee565b60405161008593929190610791565b60405180910390f35b610096610162565b005b6100a0610176565b6040516100ad91906107c8565b60405180910390f35b6100d060048036038101906100cb919061089e565b61019f565b005b6100ec60048036038101906100e79190610933565b6104a1565b005b6001602052816000526040600020818154811061010a57600080fd5b9060005260206000209060030201600091509150508060000160009054906101000a900473ffffffffffffffffffffffffffffffffffffffff16908060010154908060020160009054906101000a900460ff16905083565b61016a610527565b61017460006105ae565b565b60008060009054906101000a900473ffffffffffffffffffffffffffffffffffffffff16905090565b6101a7610527565b8181905084849050146101ef576040517f08c379a00000000000000000000000000000000000000000000000000000000081526004016101e6906109e3565b60405180910390fd5b60008590506000805b86869050811015610386576001600086868481811061021a57610219610a03565b5b905060200201602081019061022f9190610933565b73ffffffffffffffffffffffffffffffffffffffff1673ffffffffffffffffffffffffffffffffffffffff16815260200190815260200160002060405180606001604052808a73ffffffffffffffffffffffffffffffffffffffff1681526020018989858181106102a3576102a2610a03565b5b90506020020135815260200160001515815250908060018154018082558091505060019003906000526020600020906003020160009091909190915060008201518160000160006101000a81548173ffffffffffffffffffffffffffffffffffffffff021916908373ffffffffffffffffffffffffffffffffffffffff1602179055506020820151816001015560408201518160020160006101000a81548160ff021916908315150217905550505086868281811061036557610364610a03565b5b90506020020135826103779190610a61565b915080806001019150506101f8565b508173ffffffffffffffffffffffffffffffffffffffff166323b872dd3330846040518463ffffffff1660e01b81526004016103c493929190610a95565b6020604051808303816000875af11580156103e3573d6000803e3d6000fd5b505050506040513d601f19601f820116820180604052508101906104079190610af8565b610446576040517f08c379a000000000000000000000000000000000000000000000000000000000815260040161043d90610b71565b60405180910390fd5b8673ffffffffffffffffffffffffffffffffffffffff167f5bbee7c510efe1f5b0c24b4be7587dba2db568204f8ed69a6a72e31b79a59a7a82868660405161049093929190610c54565b60405180910390a250505050505050565b6104a9610527565b600073ffffffffffffffffffffffffffffffffffffffff168173ffffffffffffffffffffffffffffffffffffffff160361051b5760006040517f1e4fbdf700000000000000000000000000000000000000000000000000000000815260040161051291906107c8565b60405180910390fd5b610524816105ae565b50565b61052f610672565b73ffffffffffffffffffffffffffffffffffffffff1661054d610176565b73ffffffffffffffffffffffffffffffffffffffff16146105ac57610570610672565b6040517f118cdaa70000000000000000000000000000000000000000000000000000000081526004016105a391906107c8565b60405180910390fd5b565b60008060009054906101000a900473ffffffffffffffffffffffffffffffffffffffff169050816000806101000a81548173ffffffffffffffffffffffffffffffffffffffff021916908373ffffffffffffffffffffffffffffffffffffffff1602179055508173ffffffffffffffffffffffffffffffffffffffff168173ffffffffffffffffffffffffffffffffffffffff167f8be0079c531659141344cd1fd0a4f28419497f9722a3daafe3b4186f6b6457e060405160405180910390a35050565b600033905090565b600080fd5b600080fd5b600073ffffffffffffffffffffffffffffffffffffffff82169050919050565b60006106af82610684565b9050919050565b6106bf816106a4565b81146106ca57600080fd5b50565b6000813590506106dc816106b6565b92915050565b6000819050919050565b6106f5816106e2565b811461070057600080fd5b50565b600081359050610712816106ec565b92915050565b6000806040838503121561072f5761072e61067a565b5b600061073d858286016106cd565b925050602061074e85828601610703565b9150509250929050565b610761816106a4565b82525050565b610770816106e2565b82525050565b60008115159050919050565b61078b81610776565b82525050565b60006060820190506107a66000830186610758565b6107b36020830185610767565b6107c06040830184610782565b949350505050565b60006020820190506107dd6000830184610758565b92915050565b600080fd5b600080fd5b600080fd5b60008083601f840112610808576108076107e3565b5b8235905067ffffffffffffffff811115610825576108246107e8565b5b602083019150836020820283011115610841576108406107ed565b5b9250929050565b60008083601f84011261085e5761085d6107e3565b5b8235905067ffffffffffffffff81111561087b5761087a6107e8565b5b602083019150836020820283011115610897576108966107ed565b5b9250929050565b6000806000806000606086880312156108ba576108b961067a565b5b60006108c8888289016106cd565b955050602086013567ffffffffffffffff8111156108e9576108e861067f565b5b6108f5888289016107f2565b9450945050604086013567ffffffffffffffff8111156109185761091761067f565b5b61092488828901610848565b92509250509295509295909350565b6000602082840312156109495761094861067a565b5b6000610957848285016106cd565b91505092915050565b600082825260208201905092915050565b7f416d6f756e747320616e6420726563697069656e7473206c656e677468206d6960008201527f736d617463680000000000000000000000000000000000000000000000000000602082015250565b60006109cd602683610960565b91506109d882610971565b604082019050919050565b600060208201905081810360008301526109fc816109c0565b9050919050565b7f4e487b7100000000000000000000000000000000000000000000000000000000600052603260045260246000fd5b7f4e487b7100000000000000000000000000000000000000000000000000000000600052601160045260246000fd5b6000610a6c826106e2565b9150610a77836106e2565b9250828201905080821115610a8f57610a8e610a32565b5b92915050565b6000606082019050610aaa6000830186610758565b610ab76020830185610758565b610ac46040830184610767565b949350505050565b610ad581610776565b8114610ae057600080fd5b50565b600081519050610af281610acc565b92915050565b600060208284031215610b0e57610b0d61067a565b5b6000610b1c84828501610ae3565b91505092915050565b7f5472616e73666572206661696c65640000000000000000000000000000000000600082015250565b6000610b5b600f83610960565b9150610b6682610b25565b602082019050919050565b60006020820190508181036000830152610b8a81610b4e565b9050919050565b600082825260208201905092915050565b6000819050919050565b610bb5816106a4565b82525050565b6000610bc78383610bac565b60208301905092915050565b6000610be260208401846106cd565b905092915050565b6000602082019050919050565b6000610c038385610b91565b9350610c0e82610ba2565b8060005b85811015610c4757610c248284610bd3565b610c2e8882610bbb565b9750610c3983610bea565b925050600181019050610c12565b5085925050509392505050565b6000604082019050610c696000830186610767565b8181036020830152610c7c818486610bf7565b905094935050505056fea2646970667358221220010d02f2f12f2e8b44cdc11f69055387c8d7043acde3485d1e84bde9c413a37164736f6c63430008180033",
  "linkReferences": {},
  "deployedLinkReferences": {}
}