{
  "_format": "hh-sol-artifact-1",
  "contractName": "FiveIREToken",
  "sourceName": "contracts/FiveIREToken.sol",
  "abi": [
    {
      "inputs": [
        {
          "internalType": "address",
          "name": "deployer",
          "type": "address"
        }
      ],
      "stateMutability": "nonpayable",
      "type": "constructor"
    },
    {
      "inputs": [
        {
          "internalType": "address",
          "name": "spender",
          "type": "address"
        },
        {
          "internalType": "uint256",
          "name": "allowance",
          "type": "uint256"
        },
        {
          "internalType": "uint256",
          "name": "needed",
          "type": "uint256"
        }
      ],
      "name": "ERC20InsufficientAllowance",
      "type": "error"
    },
    {
      "inputs": [
        {
          "internalType": "address",
          "name": "sender",
          "type": "address"
        },
        {
          "internalType": "uint256",
          "name": "balance",
          "type": "uint256"
        },
        {
          "internalType": "uint256",
          "name": "needed",
          "type": "uint256"
        }
      ],
      "name": "ERC20InsufficientBalance",
      "type": "error"
    },
    {
      "inputs": [
        {
          "internalType": "address",
          "name": "approver",
          "type": "address"
        }
      ],
      "name": "ERC20InvalidApprover",
      "type": "error"
    },
    {
      "inputs": [
        {
          "internalType": "address",
          "name": "receiver",
          "type": "address"
        }
      ],
      "name": "ERC20InvalidReceiver",
      "type": "error"
    },
    {
      "inputs": [
        {
          "internalType": "address",
          "name": "sender",
          "type": "address"
        }
      ],
      "name": "ERC20InvalidSender",
      "type": "error"
    },
    {
      "inputs": [
        {
          "internalType": "address",
          "name": "spender",
          "type": "address"
        }
      ],
      "name": "ERC20InvalidSpender",
      "type": "error"
    },
    {
      "anonymous": false,
      "inputs": [
        {
          "indexed": true,
          "internalType": "address",
          "name": "owner",
          "type": "address"
        },
        {
          "indexed": true,
          "internalType": "address",
          "name": "spender",
          "type": "address"
        },
        {
          "indexed": false,
          "internalType": "uint256",
          "name": "value",
          "type": "uint256"
        }
      ],
      "name": "Approval",
      "type": "event"
    },
    {
      "anonymous": false,
      "inputs": [
        {
          "indexed": true,
          "internalType": "address",
          "name": "from",
          "type": "address"
        },
        {
          "indexed": true,
          "internalType": "address",
          "name": "to",
          "type": "address"
        },
        {
          "indexed": false,
          "internalType": "uint256",
          "name": "value",
          "type": "uint256"
        }
      ],
      "name": "Transfer",
      "type": "event"
    },
    {
      "inputs": [],
      "name": "INITIAL_SUPPLY",
      "outputs": [
        {
          "internalType": "uint256",
          "name": "",
          "type": "uint256"
        }
      ],
      "stateMutability": "view",
      "type": "function"
    },
    {
      "inputs": [],
      "name": "MAX_CLAIM_AMOUNT",
      "outputs": [
        {
          "internalType": "uint256",
          "name": "",
          "type": "uint256"
        }
      ],
      "stateMutability": "view",
      "type": "function"
    },
    {
      "inputs": [
        {
          "internalType": "address",
          "name": "owner",
          "type": "address"
        },
        {
          "internalType": "address",
          "name": "spender",
          "type": "address"
        }
      ],
      "name": "allowance",
      "outputs": [
        {
          "internalType": "uint256",
          "name": "",
          "type": "uint256"
        }
      ],
      "stateMutability": "view",
      "type": "function"
    },
    {
      "inputs": [
        {
          "internalType": "address",
          "name": "spender",
          "type": "address"
        },
        {
          "internalType": "uint256",
          "name": "value",
          "type": "uint256"
        }
      ],
      "name": "approve",
      "outputs": [
        {
          "internalType": "bool",
          "name": "",
          "type": "bool"
        }
      ],
      "stateMutability": "nonpayable",
      "type": "function"
    },
    {
      "inputs": [
        {
          "internalType": "address",
          "name": "account",
          "type": "address"
        }
      ],
      "name": "balanceOf",
      "outputs": [
        {
          "internalType": "uint256",
          "name": "",
          "type": "uint256"
        }
      ],
      "stateMutability": "view",
      "type": "function"
    },
    {
      "inputs": [
        {
          "internalType": "uint256",
          "name": "amount",
          "type": "uint256"
        }
      ],
      "name": "claimTokens",
      "outputs": [],
      "stateMutability": "nonpayable",
      "type": "function"
    },
    {
      "inputs": [],
      "name": "decimals",
      "outputs": [
        {
          "internalType": "uint8",
          "name": "",
          "type": "uint8"
        }
      ],
      "stateMutability": "view",
      "type": "function"
    },
    {
      "inputs": [],
      "name": "name",
      "outputs": [
        {
          "internalType": "string",
          "name": "",
          "type": "string"
        }
      ],
      "stateMutability": "view",
      "type": "function"
    },
    {
      "inputs": [],
      "name": "symbol",
      "outputs": [
        {
          "internalType": "string",
          "name": "",
          "type": "string"
        }
      ],
      "stateMutability": "view",
      "type": "function"
    },
    {
      "inputs": [],
      "name": "totalSupply",
      "outputs": [
        {
          "internalType": "uint256",
          "name": "",
          "type": "uint256"
        }
      ],
      "stateMutability": "view",
      "type": "function"
    },
    {
      "inputs": [
        {
          "internalType": "address",
          "name": "to",
          "type": "address"
        },
        {
          "internalType": "uint256",
          "name": "value",
          "type": "uint256"
        }
      ],
      "name": "transfer",
      "outputs": [
        {
          "internalType": "bool",
          "name": "",
          "type": "bool"
        }
      ],
      "stateMutability": "nonpayable",
      "type": "function"
    },
    {
      "inputs": [
        {
          "internalType": "address",
          "name": "from",
          "type": "address"
        },
        {
          "internalType": "address",
          "name": "to",
          "type": "address"
        },
        {
          "internalType": "uint256",
          "name": "value",
          "type": "uint256"
        }
      ],
      "name": "transferFrom",
      "outputs": [
        {
          "internalType": "bool",
          "name": "",
          "type": "bool"
        }
      ],
      "stateMutability": "nonpayable",
      "type": "function"
    }
  ],
  "bytecode": "0x60806040523480156200001157600080fd5b5060405162001a0a38038062001a0a833981810160405281019062000037919062000447565b6040518060400160405280600981526020017f35495245546f6b656e00000000000000000000000000000000000000000000008152506040518060400160405280600481526020017f35495245000000000000000000000000000000000000000000000000000000008152508160039081620000b49190620006f3565b508060049081620000c69190620006f3565b505050620000e58169152d02c7e14af68000006200012060201b60201c565b620001193069152d02c7e14af68000006a115eec47f6cf7e350000006200010d919062000809565b6200012060201b60201c565b5062000918565b600073ffffffffffffffffffffffffffffffffffffffff168273ffffffffffffffffffffffffffffffffffffffff1603620001955760006040517fec442f050000000000000000000000000000000000000000000000000000000081526004016200018c919062000855565b60405180910390fd5b620001a960008383620001ad60201b60201c565b5050565b600073ffffffffffffffffffffffffffffffffffffffff168373ffffffffffffffffffffffffffffffffffffffff160362000203578060026000828254620001f6919062000872565b92505081905550620002d9565b60008060008573ffffffffffffffffffffffffffffffffffffffff1673ffffffffffffffffffffffffffffffffffffffff1681526020019081526020016000205490508181101562000292578381836040517fe450d38c0000000000000000000000000000000000000000000000000000000081526004016200028993929190620008be565b60405180910390fd5b8181036000808673ffffffffffffffffffffffffffffffffffffffff1673ffffffffffffffffffffffffffffffffffffffff16815260200190815260200160002081905550505b600073ffffffffffffffffffffffffffffffffffffffff168273ffffffffffffffffffffffffffffffffffffffff160362000324578060026000828254039250508190555062000371565b806000808473ffffffffffffffffffffffffffffffffffffffff1673ffffffffffffffffffffffffffffffffffffffff168152602001908152602001600020600082825401925050819055505b8173ffffffffffffffffffffffffffffffffffffffff168373ffffffffffffffffffffffffffffffffffffffff167fddf252ad1be2c89b69c2b068fc378daa952ba7f163c4a11628f55a4df523b3ef83604051620003d09190620008fb565b60405180910390a3505050565b600080fd5b600073ffffffffffffffffffffffffffffffffffffffff82169050919050565b60006200040f82620003e2565b9050919050565b620004218162000402565b81146200042d57600080fd5b50565b600081519050620004418162000416565b92915050565b60006020828403121562000460576200045f620003dd565b5b6000620004708482850162000430565b91505092915050565b600081519050919050565b7f4e487b7100000000000000000000000000000000000000000000000000000000600052604160045260246000fd5b7f4e487b7100000000000000000000000000000000000000000000000000000000600052602260045260246000fd5b60006002820490506001821680620004fb57607f821691505b602082108103620005115762000510620004b3565b5b50919050565b60008190508160005260206000209050919050565b60006020601f8301049050919050565b600082821b905092915050565b6000600883026200057b7fffffffffffffffffffffffffffffffffffffffffffffffffffffffffffffffff826200053c565b6200058786836200053c565b95508019841693508086168417925050509392505050565b6000819050919050565b6000819050919050565b6000620005d4620005ce620005c8846200059f565b620005a9565b6200059f565b9050919050565b6000819050919050565b620005f083620005b3565b62000608620005ff82620005db565b84845462000549565b825550505050565b600090565b6200061f62000610565b6200062c818484620005e5565b505050565b5b8181101562000654576200064860008262000615565b60018101905062000632565b5050565b601f821115620006a3576200066d8162000517565b62000678846200052c565b8101602085101562000688578190505b620006a062000697856200052c565b83018262000631565b50505b505050565b600082821c905092915050565b6000620006c860001984600802620006a8565b1980831691505092915050565b6000620006e38383620006b5565b9150826002028217905092915050565b620006fe8262000479565b67ffffffffffffffff8111156200071a576200071962000484565b5b620007268254620004e2565b6200073382828562000658565b600060209050601f8311600181146200076b576000841562000756578287015190505b620007628582620006d5565b865550620007d2565b601f1984166200077b8662000517565b60005b82811015620007a5578489015182556001820191506020850194506020810190506200077e565b86831015620007c55784890151620007c1601f891682620006b5565b8355505b6001600288020188555050505b505050505050565b7f4e487b7100000000000000000000000000000000000000000000000000000000600052601160045260246000fd5b600062000816826200059f565b915062000823836200059f565b92508282039050818111156200083e576200083d620007da565b5b92915050565b6200084f8162000402565b82525050565b60006020820190506200086c600083018462000844565b92915050565b60006200087f826200059f565b91506200088c836200059f565b9250828201905080821115620008a757620008a6620007da565b5b92915050565b620008b8816200059f565b82525050565b6000606082019050620008d5600083018662000844565b620008e46020830185620008ad565b620008f36040830184620008ad565b949350505050565b6000602082019050620009126000830184620008ad565b92915050565b6110e280620009286000396000f3fe608060405234801561001057600080fd5b50600436106100b45760003560e01c806346e04a2f1161007157806346e04a2f1461019157806370a08231146101ad57806395d89b41146101dd578063a9059cbb146101fb578063dd62ed3e1461022b578063e362b4f71461025b576100b4565b806306fdde03146100b9578063095ea7b3146100d757806318160ddd1461010757806323b872dd146101255780632ff2e9dc14610155578063313ce56714610173575b600080fd5b6100c1610279565b6040516100ce9190610be5565b60405180910390f35b6100f160048036038101906100ec9190610ca0565b61030b565b6040516100fe9190610cfb565b60405180910390f35b61010f61032e565b60405161011c9190610d25565b60405180910390f35b61013f600480360381019061013a9190610d40565b610338565b60405161014c9190610cfb565b60405180910390f35b61015d610367565b60405161016a9190610d25565b60405180910390f35b61017b610376565b6040516101889190610daf565b60405180910390f35b6101ab60048036038101906101a69190610dca565b61037f565b005b6101c760048036038101906101c29190610df7565b610425565b6040516101d49190610d25565b60405180910390f35b6101e561046d565b6040516101f29190610be5565b60405180910390f35b61021560048036038101906102109190610ca0565b6104ff565b6040516102229190610cfb565b60405180910390f35b61024560048036038101906102409190610e24565b610522565b6040516102529190610d25565b60405180910390f35b6102636105a9565b6040516102709190610d25565b60405180910390f35b60606003805461028890610e93565b80601f01602080910402602001604051908101604052809291908181526020018280546102b490610e93565b80156103015780601f106102d657610100808354040283529160200191610301565b820191906000526020600020905b8154815290600101906020018083116102e457829003601f168201915b5050505050905090565b6000806103166105b7565b90506103238185856105bf565b600191505092915050565b6000600254905090565b6000806103436105b7565b90506103508582856105d1565b61035b858585610665565b60019150509392505050565b6a115eec47f6cf7e3500000081565b60006012905090565b69152d02c7e14af68000008111156103cc576040517f08c379a00000000000000000000000000000000000000000000000000000000081526004016103c390610f36565b60405180910390fd5b806103d630610425565b1015610417576040517f08c379a000000000000000000000000000000000000000000000000000000000815260040161040e90610fc8565b60405180910390fd5b610422303383610665565b50565b60008060008373ffffffffffffffffffffffffffffffffffffffff1673ffffffffffffffffffffffffffffffffffffffff168152602001908152602001600020549050919050565b60606004805461047c90610e93565b80601f01602080910402602001604051908101604052809291908181526020018280546104a890610e93565b80156104f55780601f106104ca576101008083540402835291602001916104f5565b820191906000526020600020905b8154815290600101906020018083116104d857829003601f168201915b5050505050905090565b60008061050a6105b7565b9050610517818585610665565b600191505092915050565b6000600160008473ffffffffffffffffffffffffffffffffffffffff1673ffffffffffffffffffffffffffffffffffffffff16815260200190815260200160002060008373ffffffffffffffffffffffffffffffffffffffff1673ffffffffffffffffffffffffffffffffffffffff16815260200190815260200160002054905092915050565b69152d02c7e14af680000081565b600033905090565b6105cc8383836001610759565b505050565b60006105dd8484610522565b90507fffffffffffffffffffffffffffffffffffffffffffffffffffffffffffffffff811461065f578181101561064f578281836040517ffb8f41b200000000000000000000000000000000000000000000000000000000815260040161064693929190610ff7565b60405180910390fd5b61065e84848484036000610759565b5b50505050565b600073ffffffffffffffffffffffffffffffffffffffff168373ffffffffffffffffffffffffffffffffffffffff16036106d75760006040517f96c6fd1e0000000000000000000000000000000000000000000000000000000081526004016106ce919061102e565b60405180910390fd5b600073ffffffffffffffffffffffffffffffffffffffff168273ffffffffffffffffffffffffffffffffffffffff16036107495760006040517fec442f05000000000000000000000000000000000000000000000000000000008152600401610740919061102e565b60405180910390fd5b610754838383610930565b505050565b600073ffffffffffffffffffffffffffffffffffffffff168473ffffffffffffffffffffffffffffffffffffffff16036107cb5760006040517fe602df050000000000000000000000000000000000000000000000000000000081526004016107c2919061102e565b60405180910390fd5b600073ffffffffffffffffffffffffffffffffffffffff168373ffffffffffffffffffffffffffffffffffffffff160361083d5760006040517f94280d62000000000000000000000000000000000000000000000000000000008152600401610834919061102e565b60405180910390fd5b81600160008673ffffffffffffffffffffffffffffffffffffffff1673ffffffffffffffffffffffffffffffffffffffff16815260200190815260200160002060008573ffffffffffffffffffffffffffffffffffffffff1673ffffffffffffffffffffffffffffffffffffffff16815260200190815260200160002081905550801561092a578273ffffffffffffffffffffffffffffffffffffffff168473ffffffffffffffffffffffffffffffffffffffff167f8c5be1e5ebec7d5bd14f71427d1e84f3dd0314c0f7b2291e5b200ac8c7c3b925846040516109219190610d25565b60405180910390a35b50505050565b600073ffffffffffffffffffffffffffffffffffffffff168373ffffffffffffffffffffffffffffffffffffffff16036109825780600260008282546109769190611078565b92505081905550610a55565b60008060008573ffffffffffffffffffffffffffffffffffffffff1673ffffffffffffffffffffffffffffffffffffffff16815260200190815260200160002054905081811015610a0e578381836040517fe450d38c000000000000000000000000000000000000000000000000000000008152600401610a0593929190610ff7565b60405180910390fd5b8181036000808673ffffffffffffffffffffffffffffffffffffffff1673ffffffffffffffffffffffffffffffffffffffff16815260200190815260200160002081905550505b600073ffffffffffffffffffffffffffffffffffffffff168273ffffffffffffffffffffffffffffffffffffffff1603610a9e5780600260008282540392505081905550610aeb565b806000808473ffffffffffffffffffffffffffffffffffffffff1673ffffffffffffffffffffffffffffffffffffffff168152602001908152602001600020600082825401925050819055505b8173ffffffffffffffffffffffffffffffffffffffff168373ffffffffffffffffffffffffffffffffffffffff167fddf252ad1be2c89b69c2b068fc378daa952ba7f163c4a11628f55a4df523b3ef83604051610b489190610d25565b60405180910390a3505050565b600081519050919050565b600082825260208201905092915050565b60005b83811015610b8f578082015181840152602081019050610b74565b60008484015250505050565b6000601f19601f8301169050919050565b6000610bb782610b55565b610bc18185610b60565b9350610bd1818560208601610b71565b610bda81610b9b565b840191505092915050565b60006020820190508181036000830152610bff8184610bac565b905092915050565b600080fd5b600073ffffffffffffffffffffffffffffffffffffffff82169050919050565b6000610c3782610c0c565b9050919050565b610c4781610c2c565b8114610c5257600080fd5b50565b600081359050610c6481610c3e565b92915050565b6000819050919050565b610c7d81610c6a565b8114610c8857600080fd5b50565b600081359050610c9a81610c74565b92915050565b60008060408385031215610cb757610cb6610c07565b5b6000610cc585828601610c55565b9250506020610cd685828601610c8b565b9150509250929050565b60008115159050919050565b610cf581610ce0565b82525050565b6000602082019050610d106000830184610cec565b92915050565b610d1f81610c6a565b82525050565b6000602082019050610d3a6000830184610d16565b92915050565b600080600060608486031215610d5957610d58610c07565b5b6000610d6786828701610c55565b9350506020610d7886828701610c55565b9250506040610d8986828701610c8b565b9150509250925092565b600060ff82169050919050565b610da981610d93565b82525050565b6000602082019050610dc46000830184610da0565b92915050565b600060208284031215610de057610ddf610c07565b5b6000610dee84828501610c8b565b91505092915050565b600060208284031215610e0d57610e0c610c07565b5b6000610e1b84828501610c55565b91505092915050565b60008060408385031215610e3b57610e3a610c07565b5b6000610e4985828601610c55565b9250506020610e5a85828601610c55565b9150509250929050565b7f4e487b7100000000000000000000000000000000000000000000000000000000600052602260045260246000fd5b60006002820490506001821680610eab57607f821691505b602082108103610ebe57610ebd610e64565b5b50919050565b7f436c61696d20616d6f756e742065786365656473206d6178696d756d20616c6c60008201527f6f7765642e000000000000000000000000000000000000000000000000000000602082015250565b6000610f20602583610b60565b9150610f2b82610ec4565b604082019050919050565b60006020820190508181036000830152610f4f81610f13565b9050919050565b7f496e73756666696369656e7420746f6b656e7320696e20636f6e74726163742060008201527f666f7220636c61696d2e00000000000000000000000000000000000000000000602082015250565b6000610fb2602a83610b60565b9150610fbd82610f56565b604082019050919050565b60006020820190508181036000830152610fe181610fa5565b9050919050565b610ff181610c2c565b82525050565b600060608201905061100c6000830186610fe8565b6110196020830185610d16565b6110266040830184610d16565b949350505050565b60006020820190506110436000830184610fe8565b92915050565b7f4e487b7100000000000000000000000000000000000000000000000000000000600052601160045260246000fd5b600061108382610c6a565b915061108e83610c6a565b92508282019050808211156110a6576110a5611049565b5b9291505056fea2646970667358221220792072d3dafe2ce1965d6e61a7444c1b608852a25f15ade1b7b0802d24dcab1464736f6c63430008180033",
  "linkReferences": {},
  "deployedLinkReferences": {}
}